{
  "transactions": [
    {
      "hash": "0xd5207a66dd5683a02bd6258bcd10b894e6dc73f3d6879d1bfd783b4ed22da0d1",
      "transactionType": "CREATE",
      "contractName": "MockMemecoin",
      "contractAddress": "0x1D9EDe32d89FDafA563fD63FffAFE591d303765c",
      "function": null,
      "arguments": [
        "Mock Horus Coin",
        "HORUS",
        "18"
      ],
      "transaction": {
        "from": "0xf4177fCdae0C7E24409AB40217C0e0315E257422",
        "gas": "0xba7b7",
        "value": "0x0",
        "input": "0x60806040523480156200001157600080fd5b5060405162000d4238038062000d428339810160408190526200003491620002cf565b82826003620000448382620003e3565b506004620000538282620003e3565b50506005805460ff191660ff8416179055506200008c336200007783600a620005c4565b6200008690620f4240620005dc565b62000095565b5050506200060c565b6001600160a01b038216620000c55760405163ec442f0560e01b8152600060048201526024015b60405180910390fd5b620000d360008383620000d7565b5050565b6001600160a01b03831662000106578060026000828254620000fa9190620005f6565b909155506200017a9050565b6001600160a01b038316600090815260208190526040902054818110156200015b5760405163391434e360e21b81526001600160a01b03851660048201526024810182905260448101839052606401620000bc565b6001600160a01b03841660009081526020819052604090209082900390555b6001600160a01b0382166200019857600280548290039055620001b7565b6001600160a01b03821660009081526020819052604090208054820190555b816001600160a01b0316836001600160a01b03167fddf252ad1be2c89b69c2b068fc378daa952ba7f163c4a11628f55a4df523b3ef83604051620001fd91815260200190565b60405180910390a3505050565b634e487b7160e01b600052604160045260246000fd5b600082601f8301126200023257600080fd5b81516001600160401b03808211156200024f576200024f6200020a565b604051601f8301601f19908116603f011681019082821181831017156200027a576200027a6200020a565b816040528381526020925086838588010111156200029757600080fd5b600091505b83821015620002bb57858201830151818301840152908201906200029c565b600093810190920192909252949350505050565b600080600060608486031215620002e557600080fd5b83516001600160401b0380821115620002fd57600080fd5b6200030b8783880162000220565b945060208601519150808211156200032257600080fd5b50620003318682870162000220565b925050604084015160ff811681146200034957600080fd5b809150509250925092565b600181811c908216806200036957607f821691505b6020821081036200038a57634e487b7160e01b600052602260045260246000fd5b50919050565b601f821115620003de57600081815260208120601f850160051c81016020861015620003b95750805b601f850160051c820191505b81811015620003da57828155600101620003c5565b5050505b505050565b81516001600160401b03811115620003ff57620003ff6200020a565b620004178162000410845462000354565b8462000390565b602080601f8311600181146200044f5760008415620004365750858301515b600019600386901b1c1916600185901b178555620003da565b600085815260208120601f198616915b8281101562000480578886015182559484019460019091019084016200045f565b50858210156200049f5787850151600019600388901b60f8161c191681555b5050505050600190811b01905550565b634e487b7160e01b600052601160045260246000fd5b600181815b8085111562000506578160001904821115620004ea57620004ea620004af565b80851615620004f857918102915b93841c9390800290620004ca565b509250929050565b6000826200051f57506001620005be565b816200052e57506000620005be565b8160018114620005475760028114620005525762000572565b6001915050620005be565b60ff841115620005665762000566620004af565b50506001821b620005be565b5060208310610133831016604e8410600b841016171562000597575081810a620005be565b620005a38383620004c5565b8060001904821115620005ba57620005ba620004af565b0290505b92915050565b6000620005d560ff8416836200050e565b9392505050565b8082028115828204841417620005be57620005be620004af565b80820180821115620005be57620005be620004af565b610726806200061c6000396000f3fe608060405234801561001057600080fd5b50600436106100935760003560e01c8063313ce56711610066578063313ce567146100fe57806370a082311461011357806395d89b411461013c578063a9059cbb14610144578063dd62ed3e1461015757600080fd5b806306fdde0314610098578063095ea7b3146100b657806318160ddd146100d957806323b872dd146100eb575b600080fd5b6100a0610190565b6040516100ad9190610570565b60405180910390f35b6100c96100c43660046105da565b610222565b60405190151581526020016100ad565b6002545b6040519081526020016100ad565b6100c96100f9366004610604565b61023c565b60055460405160ff90911681526020016100ad565b6100dd610121366004610640565b6001600160a01b031660009081526020819052604090205490565b6100a0610260565b6100c96101523660046105da565b61026f565b6100dd610165366004610662565b6001600160a01b03918216600090815260016020908152604080832093909416825291909152205490565b60606003805461019f90610695565b80601f01602080910402602001604051908101604052809291908181526020018280546101cb90610695565b80156102185780601f106101ed57610100808354040283529160200191610218565b820191906000526020600020905b8154815290600101906020018083116101fb57829003601f168201915b5050505050905090565b60003361023081858561027d565b60019150505b92915050565b60003361024a85828561028f565b610255858585610312565b506001949350505050565b60606004805461019f90610695565b600033610230818585610312565b61028a8383836001610371565b505050565b6001600160a01b03838116600090815260016020908152604080832093861683529290522054600019811461030c57818110156102fd57604051637dc7a0d960e11b81526001600160a01b038416600482015260248101829052604481018390526064015b60405180910390fd5b61030c84848484036000610371565b50505050565b6001600160a01b03831661033c57604051634b637e8f60e11b8152600060048201526024016102f4565b6001600160a01b0382166103665760405163ec442f0560e01b8152600060048201526024016102f4565b61028a838383610446565b6001600160a01b03841661039b5760405163e602df0560e01b8152600060048201526024016102f4565b6001600160a01b0383166103c557604051634a1406b160e11b8152600060048201526024016102f4565b6001600160a01b038085166000908152600160209081526040808320938716835292905220829055801561030c57826001600160a01b0316846001600160a01b03167f8c5be1e5ebec7d5bd14f71427d1e84f3dd0314c0f7b2291e5b200ac8c7c3b9258460405161043891815260200190565b60405180910390a350505050565b6001600160a01b03831661047157806002600082825461046691906106cf565b909155506104e39050565b6001600160a01b038316600090815260208190526040902054818110156104c45760405163391434e360e21b81526001600160a01b038516600482015260248101829052604481018390526064016102f4565b6001600160a01b03841660009081526020819052604090209082900390555b6001600160a01b0382166104ff5760028054829003905561051e565b6001600160a01b03821660009081526020819052604090208054820190555b816001600160a01b0316836001600160a01b03167fddf252ad1be2c89b69c2b068fc378daa952ba7f163c4a11628f55a4df523b3ef8360405161056391815260200190565b60405180910390a3505050565b600060208083528351808285015260005b8181101561059d57858101830151858201604001528201610581565b506000604082860101526040601f19601f8301168501019250505092915050565b80356001600160a01b03811681146105d557600080fd5b919050565b600080604083850312156105ed57600080fd5b6105f6836105be565b946020939093013593505050565b60008060006060848603121561061957600080fd5b610622846105be565b9250610630602085016105be565b9150604084013590509250925092565b60006020828403121561065257600080fd5b61065b826105be565b9392505050565b6000806040838503121561067557600080fd5b61067e836105be565b915061068c602084016105be565b90509250929050565b600181811c908216806106a957607f821691505b6020821081036106c957634e487b7160e01b600052602260045260246000fd5b50919050565b8082018082111561023657634e487b7160e01b600052601160045260246000fdfea264697066735822122021d7bed4c07474f1624850376207e164f5e161424eb9bbc552dca5a2d481c5cf64736f6c63430008140033000000000000000000000000000000000000000000000000000000000000006000000000000000000000000000000000000000000000000000000000000000a00000000000000000000000000000000000000000000000000000000000000012000000000000000000000000000000000000000000000000000000000000000f4d6f636b20486f72757320436f696e00000000000000000000000000000000000000000000000000000000000000000000000000000000000000000000000005484f525553000000000000000000000000000000000000000000000000000000",
        "nonce": "0x1",
        "chainId": "0xaa36a7"
      },
      "additionalContracts": [],
      "isFixedGasLimit": false
    },
    {
      "hash": "0x8a88080905aa7cee9cf3d8f7fb394055957b67a194bf1f06ae3a8224ff6a6f39",
      "transactionType": "CALL",
      "contractName": null,
      "contractAddress": "0x0227628f3F023bb0B980b67D528571c95c6DaC1c",
      "function": "createPool(address,address,uint24)",
      "arguments": [
        "0x1D9EDe32d89FDafA563fD63FffAFE591d303765c",
        "0xfFf9976782d46CC05630D1f6eBAb18b2324d6B14",
        "10000"
      ],
      "transaction": {
        "from": "0xf4177fCdae0C7E24409AB40217C0e0315E257422",
        "to": "0x0227628f3F023bb0B980b67D528571c95c6DaC1c",
        "gas": "0x600e48",
        "value": "0x0",
        "input": "0xa16712950000000000000000000000001d9ede32d89fdafa563fd63fffafe591d303765c000000000000000000000000fff9976782d46cc05630d1f6ebab18b2324d6b140000000000000000000000000000000000000000000000000000000000002710",
        "nonce": "0x2",
        "chainId": "0xaa36a7"
      },
      "additionalContracts": [],
      "isFixedGasLimit": false
    },
    {
      "hash": "0xb73939393f23b3188d01ddbeb04b6850ae9c962a2099e9156ddb6a1ea3b9b7b7",
      "transactionType": "CALL",
      "contractName": null,
      "contractAddress": "0xAb68B4C900214A30425182Cc9385Bca7d3B4Ee28",
      "function": "initialize(uint160)",
      "arguments": [
        "79228162514264337593543950336"
      ],
      "transaction": {
        "from": "0xf4177fCdae0C7E24409AB40217C0e0315E257422",
        "to": "0xAb68B4C900214A30425182Cc9385Bca7d3B4Ee28",
        "gas": "0x17a86",
        "value": "0x0",
        "input": "0xf637731d0000000000000000000000000000000000000001000000000000000000000000",
        "nonce": "0x3",
        "chainId": "0xaa36a7"
      },
      "additionalContracts": [],
      "isFixedGasLimit": false
    }
  ],
  "receipts": [
    {
      "status": "0x1",
      "cumulativeGasUsed": "0x14d3a96",
      "logs": [
        {
          "address": "0x1D9EDe32d89FDafA563fD63FffAFE591d303765c",
          "topics": [
            "0xddf252ad1be2c89b69c2b068fc378daa952ba7f163c4a11628f55a4df523b3ef",
            "0x0000000000000000000000000000000000000000000000000000000000000000",
            "0x000000000000000000000000f4177fcdae0c7e24409ab40217c0e0315e257422"
          ],
          "data": "0x00000000000000000000000000000000000000000000d3c21bcecceda1000000",
          "blockHash": "0x9a9b5ab9f17203764a0df3bdfa55fd67d7832e8016a87671bd608f03b0778fae",
          "blockNumber": "0x9d13ec",
          "blockTimestamp": "0x69975120",
          "transactionHash": "0xd5207a66dd5683a02bd6258bcd10b894e6dc73f3d6879d1bfd783b4ed22da0d1",
          "transactionIndex": "0x62",
          "logIndex": "0xdc",
          "removed": false
        }
      ],
      "logsBloom": "0x00000000000000000000000000000000000000000000000000000000040000000000000000000000000000000000000000000000000000000000000000000000000000000000000000000008000000000000000000000000000000000000000000000000020000000020002000000800000000000000200000000010000000000000000000000000000000000000000000000000000000000000000000000000000000000000000000000000000000000000000000000000000000000000000000000002000000000000000000000000000000000000000000000000000020000000000000000000000000000200080000000000000000000000000000000000",
      "type": "0x2",
      "transactionHash": "0xd5207a66dd5683a02bd6258bcd10b894e6dc73f3d6879d1bfd783b4ed22da0d1",
      "transactionIndex": "0x62",
      "blockHash": "0x9a9b5ab9f17203764a0df3bdfa55fd67d7832e8016a87671bd608f03b0778fae",
      "blockNumber": "0x9d13ec",
      "gasUsed": "0x8f80f",
      "effectiveGasPrice": "0x7da25e0e",
      "from": "0xf4177fCdae0C7E24409AB40217C0e0315E257422",
      "to": null,
      "contractAddress": "0x1D9EDe32d89FDafA563fD63FffAFE591d303765c"
    },
    {
      "status": "0x1",
      "cumulativeGasUsed": "0x192cb10",
      "logs": [
        {
          "address": "0x0227628f3F023bb0B980b67D528571c95c6DaC1c",
          "topics": [
            "0x783cca1c0412dd0d695e784568c96da2e9c22ff989357a2e8b1d9b2b4e6b7118",
            "0x0000000000000000000000001d9ede32d89fdafa563fd63fffafe591d303765c",
            "0x000000000000000000000000fff9976782d46cc05630d1f6ebab18b2324d6b14",
            "0x0000000000000000000000000000000000000000000000000000000000002710"
          ],
          "data": "0x00000000000000000000000000000000000000000000000000000000000000c8000000000000000000000000ab68b4c900214a30425182cc9385bca7d3b4ee28",
          "blockHash": "0x9a9b5ab9f17203764a0df3bdfa55fd67d7832e8016a87671bd608f03b0778fae",
          "blockNumber": "0x9d13ec",
          "blockTimestamp": "0x69975120",
          "transactionHash": "0x8a88080905aa7cee9cf3d8f7fb394055957b67a194bf1f06ae3a8224ff6a6f39",
          "transactionIndex": "0x63",
          "logIndex": "0xdd",
          "removed": false
        }
      ],
      "logsBloom": "0x00000000001000000100000000002000000000000000000000000000000000000100000000400000000000000000000000000800000000000000000000000000000000000000000000000000000000000000000000000040000000000000000000000000002000000000000000000000000000000000000000000000000000000000000000000000000000000000000000000010000000000000000000400100000000000000000000000000000000000000000040000000000000000000000000000000000000000000000001000000000000000000000000000000000000000000400000000000000000000000000000000000000000000000000000000000",
      "type": "0x2",
      "transactionHash": "0x8a88080905aa7cee9cf3d8f7fb394055957b67a194bf1f06ae3a8224ff6a6f39",
      "transactionIndex": "0x63",
      "blockHash": "0x9a9b5ab9f17203764a0df3bdfa55fd67d7832e8016a87671bd608f03b0778fae",
      "blockNumber": "0x9d13ec",
      "gasUsed": "0x45907a",
      "effectiveGasPrice": "0x7da25e0e",
      "from": "0xf4177fCdae0C7E24409AB40217C0e0315E257422",
      "to": "0x0227628f3F023bb0B980b67D528571c95c6DaC1c",
      "contractAddress": null
    },
    {
      "status": "0x1",
      "cumulativeGasUsed": "0x193dd1c",
      "logs": [
        {
          "address": "0xAb68B4C900214A30425182Cc9385Bca7d3B4Ee28",
          "topics": [
            "0x98636036cb66a9c19a37435efc1e90142190214e8abeb821bdba3f2990dd4c95"
          ],
          "data": "0x00000000000000000000000000000000000000010000000000000000000000000000000000000000000000000000000000000000000000000000000000000000",
          "blockHash": "0x9a9b5ab9f17203764a0df3bdfa55fd67d7832e8016a87671bd608f03b0778fae",
          "blockNumber": "0x9d13ec",
          "blockTimestamp": "0x69975120",
          "transactionHash": "0xb73939393f23b3188d01ddbeb04b6850ae9c962a2099e9156ddb6a1ea3b9b7b7",
          "transactionIndex": "0x64",
          "logIndex": "0xde",
          "removed": false
        }
      ],
      "logsBloom": "0x00000000000000000000000000000000000000000000000000000000000000000000000000000000000000000000000000000000000000000000000000000000000000000000000000000000000000000001000000000000000000000000000000000000000000000000000000000000000000000000000000000000000000000000000000000000000000000000000000000000000000000000000000000000000000000000000000000000000000000000000000000000000000000000080000000000000000000000000000000000200000001000000000000000000000000000000000000000000000004000000000000000000000000000000400000000",
      "type": "0x2",
      "transactionHash": "0xb73939393f23b3188d01ddbeb04b6850ae9c962a2099e9156ddb6a1ea3b9b7b7",
      "transactionIndex": "0x64",
      "blockHash": "0x9a9b5ab9f17203764a0df3bdfa55fd67d7832e8016a87671bd608f03b0778fae",
      "blockNumber": "0x9d13ec",
      "gasUsed": "0x1120c",
      "effectiveGasPrice": "0x7da25e0e",
      "from": "0xf4177fCdae0C7E24409AB40217C0e0315E257422",
      "to": "0xAb68B4C900214A30425182Cc9385Bca7d3B4Ee28",
      "contractAddress": null
    }
  ],
  "libraries": [],
  "pending": [],
  "returns": {},
  "timestamp": 1771524385,
  "chain": 11155111,
  "commit": "18b9a3a"
}